:020000040800F2
:1000000010080020950100089D0100089F010008CC
:10001000A1010008A3010008A501000800000000DC
:10002000000000000000000000000000A701000820
:10003000A901000800000000AB010008AD010008A4
:10004000AF010008AF010008AF010008AF010008D0
:10005000AF010008AF010008AF010008AF010008C0
:10006000AF010008AF010008AF010008AF010008B0
:10007000AF010008AF010008AF010008AF010008A0
:10008000AF010008AF010008AF010008AF01000890
:10009000AF010008AF010008AF010008AF01000880
:1000A000AF010008AF010008AF010008AF01000870
:1000B000AF010008B5050008AF010008AF01000856
:1000C000AF010008AF010008AF010008AF01000850
:1000D000AF010008AF01000859060008AF01000891
:1000E000AF010008AF010008AF01000800F002F8FE
:1000F00000F041F80AA090E8000C82448344AAF181
:100100000107DA4501D100F036F8AFF2090EBAE87E
:100110000F0013F0010F18BFFB1A43F0010318473B
:1001200088120000A8120000103A24BF78C878C1D5
:10013000FAD8520724BF30C830C144BF04680C60ED
:10014000704700000023002400250026103A28BF35
:1001500078C1FBD8520728BF30C148BF0B60704739
:10016000642900F07F80002070471FB500F0BAF8C6
:100170001FBD10B510BD00F03EF91146FFF7F5FFA9
:1001800000F030FD00F05CF903B4FFF7F2FF03BCB0
:1001900000F066F90948804709480047FEE7FEE796
:1001A000FEE7FEE7FEE7FEE7FEE7FEE7FEE7FEE727
:1001B00004480549054A064B7047000055050008EC
:1001C000ED0000081002002010080020100400209C
:1001D000100400200FB41CB5074B06AA7B446946E7
:1001E0000090059800F0EFF80020694600F0FEF856
:1001F0001CBC5DF814FB00000D0200002DE9F0416D
:100200000E460446002020622046E168884730B34D
:10021000252805D0D4E901219047206A401CF2E747
:10022000E168204600278847050018D0A5F1410065
:10023000192802D820354FF4006732462946204657
:100240002760FFF78DFF40B1012804D0F61D26F08E
:1002500007060836D8E7361DD6E72846DAE7206ACB
:10026000BDE8F0812DE9F0410646002410687529AB
:10027000314616A510D0AFF30080002802DA4042C4
:1002800013A507E031688A0701D512A502E04907E6
:1002900004D511A5012401E0AFF3008000210A225A
:1002A00006F1240709E0B0FBF2FCB0FBF2F302FB1D
:1002B0001C00303078541846491C0028F3D12346DE
:1002C0002A463046BDE8F04100F01EB800000000AC
:1002D0002D0000002B000000200000007047704738
:1002E0007047000070B5064C7C44064D7D4403E029
:1002F000206820448047241DAC42F9D170BD000025
:10030000DC100000E01000002DE9F0470D46994692
:100310009246044600F124080168880604D5E06985
:1003200021F01001216000E00120A84201DD471BFF
:1003300000E00027A1697A1902EB0900081AA06100
:100340002078C00602D42046AFF30080002608E0E3
:10035000D4E901211AF806009047206A401C761C57
:1003600020624E45F4DB2078C0060AD52046AFF364
:10037000008006E0D4E9012130209047206A401C2B
:100380002062381EA7F10107F4DC07E0D4E901215F
:1003900018F805009047206A401C2062281EA5F12D
:1003A0000105F3DC2046AFF300802078000602D57B
:1003B0000220BDE8F0870120FBE7000001694A1C2C
:1003C00002610878704700B58FB0CDE90131002196
:1003D000059105497944CDE9031011466846FFF7B8
:1003E0000DFF0FB000BD0000E5FFFFFF0A6802F837
:1003F000010B0A607047754600F02CF8AE46050008
:100400006946534620F00700854618B020B5FFF72F
:10041000CFFEBDE820404FF000064FF000074FF040
:1004200000084FF0000B21F00701AC46ACE8C00912
:10043000ACE8C009ACE8C009ACE8C0098D4670471B
:1004400010B50446AFF300802046BDE81040FFF72A
:100450009BBE000000487047B001002070470000BC
:1004600001491820ABBEFEE72600020010B500F0DF
:1004700001F810BD0CB500200190009033480068D1
:1004800040F480303149086000BF3048006800F413
:10049000003000900198401C0190009818B9019814
:1004A000B0F5A06FF1D12948006800F4003010B118
:1004B0000120009001E0002000900098012843D125
:1004C0002348006840F01000214908600846006891
:1004D00020F0030008600846006840F00200086051
:1004E0001A4840681949486008464068486008460C
:1004F000406840F4806048600846406820F47C1002
:1005000048600846406840F4E810486008460068C3
:1005100040F08070086000BF0C48006800F0007078
:100520000028F9D00948406820F0030007494860D6
:100530000846406840F00200486000BF0348406839
:1005400000F00C000828F9D10CBD0000001002409A
:100550000020024010B51348006840F00100114926
:10056000086008464068104908400E49486008463F
:1005700000680E4908400B4908600846006820F4EE
:10058000802008600846406820F4FE0048604FF470
:100590001F008860FFF76AFF4FF0006004490860A1
:1005A00010BD0000001002400000FFF8FFFFF6FE43
:1005B00008ED00E010B51F4800881F4908604FF0A3
:1005C0008040808C1D4908601B4800681C490968F0
:1005D000401A19490860194800681A490968401A00
:1005E0001649086016480068134909680844144908
:1005F00008601448006811490968084411490860F6
:1006000001201149087000BF1048806800F40054B0
:100610000F480068A04204D00D4920460C6000F04D
:100620003DF800BF0B48008820F001000949088010
:1006300010BD00002408004010000020140000201D
:100640002400002028000020180000200010014095
:100650001C0000201004004010B50F48048804F06E
:10066000200028B10C49091D0988C8B200F02EF8F5
:1006700004F0800078B100F0C5F9041E03D00649EB
:10068000091D0C8007E004480C30008820F0800031
:1006900001490C31088010BD0044004068B109498F
:1006A000097881F00101074A117011B14FF4C86156
:1006B00000E00021044A116002E00021024A1160BA
:1006C00070470000080000200000002010B5202224
:1006D000254B1A700A2800D110BD202805D1234AC5
:1006E00012681278202A00D1F6E7204A1268521CBC
:1006F0001E4B1A6010700D2800D0EDE700221B4B36
:100700001B681A70184A521C184B1A6000210DE021
:10071000164A12681378154A1268521C134C22604C
:1007200001EB810203EB4202A2F130010F4A126891
:100730001278302A04DB0D4A12681278392AE7DD74
:100740000A4A12681278642A07D109B10A4601E000
:100750004FF4C862064B1A6000E000BF00BF024AB7
:10076000024B1A6000BFB7E7B00000200C00002069
:10077000040000200348006808B1012070470020F1
:10078000FCE700002C00002001460748006808B183
:1007900000207047044801600448008840F0800051
:1007A000024A10800120F4E72C0000200C44004095
:1007B000002801DD024600E000220D4B1A800028CF
:1007C00001DA424200E00022094B1B1F1A80002977
:1007D00001DD0A4600E00022054B1B1D1A8000299E
:1007E00001DA4A4200E00022014B08331A807047C8
:1007F0003804004002460848007808B900207047D5
:100800000648006810600648006808600020024B37
:1008100018700120F3E700001800002010000020ED
:100820001400002000BF20200149086000BF70476D
:10083000100801402DE9F04F95B082468B464FF0ED
:100840007E501090DAF800001290DBF80000119052
:10085000DDE91110401A0B905A48006800F027FBA0
:10086000594A5A4BCDE9040100F038FBCDE90801A3
:100870000B9800F01CFB564A564BCDE9020100F0E4
:100880002DFBCDE9040154480CC8049800F038FA57
:10089000CDE90601DDE9082300F02AFC04460D46F7
:1008A000109800F00FFD22462B46CDE9080100F01C
:1008B0001FFCCDE90E01129800F0F9FACDE908010C
:1008C000DDE90E2300F008FC06460F4643480CC83D
:1008D0004FF06630424900F001FB32463B46CDE91D
:1008E000060100203F4900F0F9FACDE902013E4837
:1008F000006800F0DCFACDE90001DDE9022300F038
:10090000FFF9CDE90401DDE9062300F0F1FBCDE9B3
:10091000080100F09DFA1490109800F0D3FC2246D4
:100920002B46CDE9080100F0EBF9CDE90C01119857
:1009300000F0BDFACDE90801DDE90C2300F0CCFBA5
:100940008046894629480CC84FF06630244900F09B
:10095000C5FA42464B46CDE906010020214900F088
:10096000BDFACDE902012248006800F0A0FACDE905
:100970000001DDE9022300F0C3F9CDE90401DDE95E
:10098000062300F0B5FBCDE9080100F061FA1390F1
:100990001498CAF800001398CBF8000009490B9886
:1009A00008600D4A30C21049149808601049139825
:1009B00008600A4AC0C20D4AC2E9008915B0BDE804
:1009C000F08F0000380000209A9999999999E13F99
:1009D00040A4DFBE0E9CE13F4000002050000020FC
:1009E00066328F4000508F404800002058000020A1
:1009F0004C00002000BF20200149086000BF704764
:100A0000140801400848006808B9002070470648EB
:100A10000068017804480068401C034A106009B966
:100A2000002010600846F1E72C00002010B50246B7
:100A30003A48C06940F00700384BD86118468069D1
:100A400040F00C0098613648006820F07F4141F08A
:100A50002A40334B18603348006820F0FF0141F012
:100A6000AA00304B186067202F4B1880DB061881D6
:100A70001846008B40F4807018832B481030008893
:100A800040F48070284B103318804FF0804000886D
:100A900040F001004FF08043188023480838008858
:100AA00040F00100204B083B188046F668001F4BC1
:100AB00018801B1F188041F211101C4B1B1D188041
:100AC00003201A4B0C3318804AF6C7701B1D188080
:100AD00016481C38008840F00100144B1C3B18805D
:100AE00012480C38008820F00100104B0C3B188095
:100AF000181F008840F001001B1F18801D200028CF
:100B000009DB00F01F040123A3404409A40004F101
:100B1000E024C4F8003100BF104610BD00100240B0
:100B200000080140000C0140080800401C0400407F
:100B300010B518491848806940F00400164B9861B8
:100B40001648006820F4706242F42060134B18606D
:100B50001148C06940F400300F4BD86140F23910A1
:100B60000F4B18802C201B1D18801846008840F45D
:100B7000005018802620002809DB00F01F04012304
:100B8000A3404409A40004F1E024C4F8003100BFEC
:100B900000BF10BD300000200010024000080140DE
:100BA0000844004010B50B484FF4005202600A4A56
:100BB000926942F01402084B9A61084A126822F4C2
:100BC000700141F40012054B1A6000BF0448FFF7A2
:100BD0002DFF10BD1C000020001002400008014045
:100BE000200000201FB576E002A903A8FFF702FE4F
:100BF000002849D03848006858B1DDE9020100EB0F
:100C00000110C1B234480068401E334A1060334AB4
:100C1000115402A903A8FFF70DFE4AF6C771039805
:100C2000884201DD084603904AF6C771029888425F
:100C300001DD084602902848006808B1039800E0EA
:100C4000002003902448006808B1029800E00020CA
:100C50000290DDE90210FFF7ABFD1F48006858B1B4
:100C60001F491D4A0398126821F812001D491A4AAB
:100C70000298126821F812001748006810B1FFF7B7
:100C8000D1FD01E0FFF7B6FE1748006810B3FFF78B
:100C900071FDF8B914480068401E134908601049F6
:100CA00031F810500F481049096830F811600B48AE
:100CB0000D490968445C04F00F0724113B462246A5
:100CC0000AA10E48CDE90056FFF784FA0B48FFF75A
:100CD0005BFD00BF00BF87E7000000200010002080
:100CE00040160020C022002004000020256420259A
:100CF000642025642025640D0A00000060000020A7
:100D000010B591EA030F48BF83F0004300F1F8816A
:100D1000841A71EB030C05D2121943EB0C03001B70
:100D200061EB0C01DFF824E14FEA1154A4EB135CF2
:100D30001EEA430F18BF9EEA445F73D023EA0E03F6
:100D4000DCF1200E21EA045143F4801332D322FA5D
:100D50000CFE10EB0E0023FA0CFE41EB0E01CCF161
:100D6000200E03FA0EFE10EB0E0051F10001B1F55A
:100D7000801FCCF1200E32D201EB045112FA0EF298
:100D8000BDE8104058BF7047401C38BF5FEA4202C0
:100D900018BF7047002814BF20F0010041F1000186
:100DA0004FEA410313F5001F38BF7047A1F1C0415E
:100DB00000F08CB9012A43EB0302ACF1200CDCF10A
:100DC0001F0E32BF4FF0000E23FA0CF310EB03009E
:100DD00041EB0451B4EB115FD0D0A1EB045101F50C
:100DE000801149085FEA300001EB04510ED350F145
:100DF000000038BF12FA0EFE08D1BDE81040C9E766
:100E0000401C38BF5FEA4202CAD1C3E7BDE81040C8
:100E10004FEA410313F5001F38BF7047A1F1C041ED
:100E200000F054B99EEA445F08D011EA5E0FBDE8B5
:100E3000104004BF01F0004100207047BDE81040A1
:100E400070B500F0F5F800BF64FBBE3E0000E0FFA7
:100E50004FEA41034FEA5353A3F58063D3F11E03D6
:100E6000C8BFD3F1210C0CDD4FF0004242EAC12291
:100E700042EA505232FA03FC8CEAE17CACEBE170BE
:100E80007047102BC4BF0020704703F5787CBCF17D
:100E9000FF3F04D06FF0004282EA2100704770B536
:100EA00000F0C6F84992248000207047F2E710F065
:100EB000004248BF4042B0FA80F310FA03F10AD072
:100EC000C3F11D0303F580634FEA415002EB035267
:100ED00002EBD12170474FF000007047DFF848C1A6
:100EE00070B51CEA111E1EBF1CEA13159EEA0C0FFA
:100EF00095EA0C0F00F06F8081EA030423EA4C139B
:100F00004EEAD47E21EA4C1141F4801143F480135F
:100F1000AE44A1FB024CA0FB0365AEF17F7E361907
:100F200055EB0C05A1FB034C4CF10003A0FB021C8C
:100F300016EB0C06654153F10003094218BF46F059
:100F4000010613F4007F0BD14FEA03314FEA05305D
:100F5000340341EA155140EA16506FF003020AE0EB
:100F60004FEAC3214FEAC520F40241EA555140EA55
:100F700056506FF0020202EB2E4201EB025585EA59
:100F8000CE710AD05FEA440C18BF24F0004450F13F
:100F9000000041F1000120EAD47040F2FE7C62457D
:100FA00000D270BDA84214BF4FF080444FF04044BF
:100FB000002E08BF0024BEF1806FA8BFA1F1C04180
:100FC000BDE8704080F282804FF0000001F1C04126
:100FD00001F0004170479EEA0C0F0CEA131518BF90
:100FE00095EA0C0F06D04FF0000081EA030E0EF0D8
:100FF000004170BD00F01CF88900013E00F007B808
:1010000000F009B84FEA430C5FEA5C5C08D081EA63
:10101000030100F05BB84FEA410C5FEA5C5CF6D17B
:101020004FF00000014970470000FF070000F87F03
:101030000EF1020E2EF0030E5EF8046B364205D45C
:10104000012A43EB030515F5001F12D8012841EBD7
:10105000010C1CF5001F0CD80ED14FEAD17C15F500
:10106000001F0CEB4C0C0CF1020C08BF4CEBD37CBA
:1010700004E04FF0080C01E04FEAD37C0CEB4C0588
:1010800026FA05F606F00706B6F1040C06D20EEBBA
:10109000860CBDE870404CF0010C6047DFE80CF0B6
:1010A000090B02024FF000414FF00000A1F50021B2
:1010B00070BD19461046012851EB010418BFD4F544
:1010C000001484BF002001F0004170BD0808A0F5A5
:1010D00000114FEA3101704791EA030F10B581F01A
:1010E00000413FF515AE83F0004300F009B8000061
:1010F00010B591EA030F48BF83F000433FF508AEF7
:10110000841A71EB030C07D212198CF0004C43EBDC
:101110000C03001B61EB0C01DFF8A4E14FEA115452
:10112000A4EB135C1EEA430F18BF9EEA445F00F075
:10113000B08023EA6E03524221EA0451C3EB6E03EE
:1011400038BF5B1EDCF1200E25D322FA0CFE10EB1B
:101150000E0043FA0CFE41EB0E01CCF1200E03FA17
:101160000EFE10EB0E0051F10001CCF1200E29D43F
:1011700012FA0EF201EB0451BDE8104058BF70475F
:10118000401C1CBFB2F1004F704700280CBF491C27
:1011900020F00100704712EB020E43EB030218BF70
:1011A0004FF0010E4EEA4202ACF1200CDCF11E0EB3
:1011B00054D943FA0CFE10EB0E0051F1FF31CCF183
:1011C0001E0ED5D50EF1010E12FA0EFE404141EB76
:1011D000010101EB445C5FEA5C5C10D910EBDE704E
:1011E00001EB045138BFBEF1004FBDE8104018BFFD
:1011F000704700280CBF491C20F00100704730D216
:101200004FEAD42C11F5001124F400641BD0B1FA7C
:1012100081F20B3AA41AA41ED2F12003914030FAB5
:1012200003F31943904001EBCC71002C01EB045106
:10123000BDE81040A8BF704701F1C0414FF0000069
:1012400001F000417047B0FA80F310FA03F100D1C9
:1012500010BDE41A173C4805C90AE4E701EB045144
:1012600010BD491001EB0451BDE810404FEA3000B9
:1012700002E04FF0000170474A0008BF0042F8D07A
:10128000B2F5001F28BF704701F000414FF0000089
:1012900070479EEA445F07D011EA5E0FBDE8104038
:1012A00004BF002100207047BDE8104070B5FFF773
:1012B000BFFE00BF40DFF63E83F00041104670479E
:1012C0000000E0FF43004FEAD30C4FEA3C0C4340E0
:1012D0001FBF40070CF1605113F0FE4F70471CF028
:1012E000006F03D100200CF0004170470CF0004368
:1012F00043EA507010B540EACC0000F00EF800BF91
:10130000000000924FEA0001FFF7E0BE4FF00041FD
:101310004FF00000A1F5002170470EF1020E2EF0F3
:10132000030E5EF8044B244204D44FEA4102B2F1AA
:101330007F4F11D84FEA4003B3F17F4F0CD80ED145
:101340004FEAD07CB2F17F4F0CEB4C0C0CF1020C4D
:1013500008BF4CEBD17C04E04FF0080C01E04FEAF1
:10136000D17C0CEB4C0324FA03F404F00704B4F131
:10137000040C06D20EEB840CBDE810404CF0010CBE
:101380006047DFE80CF0070802024FF00040A0F5CC
:10139000800010BD0846420018BFD2F1807288BF9D
:1013A00000F0004010BD0000D01300080000002035
:1013B00060000000280100083014000860000020D0
:1013C000B007000044010008DDF7FFFF65F7FFFFED
:1013D000000000000000000000000000B00000203D
:1013E00000000000000000000000000000000000FD
:1013F00000000000000000000000000000000000ED
:1014000000000000000000000000000000000000DC
:101410000000000000000000983A0000983A000028
:1014200000000000000000000000000000000000BC
:04000005080000ED02
:00000001FF
